{
  "contractName": "BoxGovernor",
  "abi": [
    {
      "inputs": [
        {
          "internalType": "contract ERC20Votes",
          "name": "_token",
          "type": "address"
        },
        {
          "internalType": "contract TimelockController",
          "name": "_timelock",
          "type": "address"
        },
        {
          "internalType": "uint256",
          "name": "_quorumPercentage",
          "type": "uint256"
        },
        {
          "internalType": "uint256",
          "name": "_votingPeriod",
          "type": "uint256"
        },
        {
          "internalType": "uint256",
          "name": "_votingDelay",
          "type": "uint256"
        }
      ],
      "stateMutability": "nonpayable",
      "type": "constructor"
    },
    {
      "anonymous": false,
      "inputs": [
        {
          "indexed": false,
          "internalType": "uint256",
          "name": "proposalId",
          "type": "uint256"
        }
      ],
      "name": "ProposalCanceled",
      "type": "event"
    },
    {
      "anonymous": false,
      "inputs": [
        {
          "indexed": false,
          "internalType": "uint256",
          "name": "proposalId",
          "type": "uint256"
        },
        {
          "indexed": false,
          "internalType": "address",
          "name": "proposer",
          "type": "address"
        },
        {
          "indexed": false,
          "internalType": "address[]",
          "name": "targets",
          "type": "address[]"
        },
        {
          "indexed": false,
          "internalType": "uint256[]",
          "name": "values",
          "type": "uint256[]"
        },
        {
          "indexed": false,
          "internalType": "string[]",
          "name": "signatures",
          "type": "string[]"
        },
        {
          "indexed": false,
          "internalType": "bytes[]",
          "name": "calldatas",
          "type": "bytes[]"
        },
        {
          "indexed": false,
          "internalType": "uint256",
          "name": "startBlock",
          "type": "uint256"
        },
        {
          "indexed": false,
          "internalType": "uint256",
          "name": "endBlock",
          "type": "uint256"
        },
        {
          "indexed": false,
          "internalType": "string",
          "name": "description",
          "type": "string"
        }
      ],
      "name": "ProposalCreated",
      "type": "event"
    },
    {
      "anonymous": false,
      "inputs": [
        {
          "indexed": false,
          "internalType": "uint256",
          "name": "proposalId",
          "type": "uint256"
        }
      ],
      "name": "ProposalExecuted",
      "type": "event"
    },
    {
      "anonymous": false,
      "inputs": [
        {
          "indexed": false,
          "internalType": "uint256",
          "name": "proposalId",
          "type": "uint256"
        },
        {
          "indexed": false,
          "internalType": "uint256",
          "name": "eta",
          "type": "uint256"
        }
      ],
      "name": "ProposalQueued",
      "type": "event"
    },
    {
      "anonymous": false,
      "inputs": [
        {
          "indexed": false,
          "internalType": "uint256",
          "name": "oldQuorumNumerator",
          "type": "uint256"
        },
        {
          "indexed": false,
          "internalType": "uint256",
          "name": "newQuorumNumerator",
          "type": "uint256"
        }
      ],
      "name": "QuorumNumeratorUpdated",
      "type": "event"
    },
    {
      "anonymous": false,
      "inputs": [
        {
          "indexed": false,
          "internalType": "address",
          "name": "oldTimelock",
          "type": "address"
        },
        {
          "indexed": false,
          "internalType": "address",
          "name": "newTimelock",
          "type": "address"
        }
      ],
      "name": "TimelockChange",
      "type": "event"
    },
    {
      "anonymous": false,
      "inputs": [
        {
          "indexed": true,
          "internalType": "address",
          "name": "voter",
          "type": "address"
        },
        {
          "indexed": false,
          "internalType": "uint256",
          "name": "proposalId",
          "type": "uint256"
        },
        {
          "indexed": false,
          "internalType": "uint8",
          "name": "support",
          "type": "uint8"
        },
        {
          "indexed": false,
          "internalType": "uint256",
          "name": "weight",
          "type": "uint256"
        },
        {
          "indexed": false,
          "internalType": "string",
          "name": "reason",
          "type": "string"
        }
      ],
      "name": "VoteCast",
      "type": "event"
    },
    {
      "inputs": [],
      "name": "BALLOT_TYPEHASH",
      "outputs": [
        {
          "internalType": "bytes32",
          "name": "",
          "type": "bytes32"
        }
      ],
      "stateMutability": "view",
      "type": "function"
    },
    {
      "inputs": [],
      "name": "COUNTING_MODE",
      "outputs": [
        {
          "internalType": "string",
          "name": "",
          "type": "string"
        }
      ],
      "stateMutability": "pure",
      "type": "function"
    },
    {
      "inputs": [
        {
          "internalType": "uint256",
          "name": "proposalId",
          "type": "uint256"
        },
        {
          "internalType": "uint8",
          "name": "support",
          "type": "uint8"
        }
      ],
      "name": "castVote",
      "outputs": [
        {
          "internalType": "uint256",
          "name": "",
          "type": "uint256"
        }
      ],
      "stateMutability": "nonpayable",
      "type": "function"
    },
    {
      "inputs": [
        {
          "internalType": "uint256",
          "name": "proposalId",
          "type": "uint256"
        },
        {
          "internalType": "uint8",
          "name": "support",
          "type": "uint8"
        },
        {
          "internalType": "uint8",
          "name": "v",
          "type": "uint8"
        },
        {
          "internalType": "bytes32",
          "name": "r",
          "type": "bytes32"
        },
        {
          "internalType": "bytes32",
          "name": "s",
          "type": "bytes32"
        }
      ],
      "name": "castVoteBySig",
      "outputs": [
        {
          "internalType": "uint256",
          "name": "",
          "type": "uint256"
        }
      ],
      "stateMutability": "nonpayable",
      "type": "function"
    },
    {
      "inputs": [
        {
          "internalType": "uint256",
          "name": "proposalId",
          "type": "uint256"
        },
        {
          "internalType": "uint8",
          "name": "support",
          "type": "uint8"
        },
        {
          "internalType": "string",
          "name": "reason",
          "type": "string"
        }
      ],
      "name": "castVoteWithReason",
      "outputs": [
        {
          "internalType": "uint256",
          "name": "",
          "type": "uint256"
        }
      ],
      "stateMutability": "nonpayable",
      "type": "function"
    },
    {
      "inputs": [
        {
          "internalType": "address[]",
          "name": "targets",
          "type": "address[]"
        },
        {
          "internalType": "uint256[]",
          "name": "values",
          "type": "uint256[]"
        },
        {
          "internalType": "bytes[]",
          "name": "calldatas",
          "type": "bytes[]"
        },
        {
          "internalType": "bytes32",
          "name": "descriptionHash",
          "type": "bytes32"
        }
      ],
      "name": "execute",
      "outputs": [
        {
          "internalType": "uint256",
          "name": "",
          "type": "uint256"
        }
      ],
      "stateMutability": "payable",
      "type": "function"
    },
    {
      "inputs": [
        {
          "internalType": "uint256",
          "name": "proposalId",
          "type": "uint256"
        },
        {
          "internalType": "address",
          "name": "account",
          "type": "address"
        }
      ],
      "name": "hasVoted",
      "outputs": [
        {
          "internalType": "bool",
          "name": "",
          "type": "bool"
        }
      ],
      "stateMutability": "view",
      "type": "function"
    },
    {
      "inputs": [
        {
          "internalType": "address[]",
          "name": "targets",
          "type": "address[]"
        },
        {
          "internalType": "uint256[]",
          "name": "values",
          "type": "uint256[]"
        },
        {
          "internalType": "bytes[]",
          "name": "calldatas",
          "type": "bytes[]"
        },
        {
          "internalType": "bytes32",
          "name": "descriptionHash",
          "type": "bytes32"
        }
      ],
      "name": "hashProposal",
      "outputs": [
        {
          "internalType": "uint256",
          "name": "",
          "type": "uint256"
        }
      ],
      "stateMutability": "pure",
      "type": "function"
    },
    {
      "inputs": [],
      "name": "name",
      "outputs": [
        {
          "internalType": "string",
          "name": "",
          "type": "string"
        }
      ],
      "stateMutability": "view",
      "type": "function"
    },
    {
      "inputs": [
        {
          "internalType": "uint256",
          "name": "proposalId",
          "type": "uint256"
        }
      ],
      "name": "proposalDeadline",
      "outputs": [
        {
          "internalType": "uint256",
          "name": "",
          "type": "uint256"
        }
      ],
      "stateMutability": "view",
      "type": "function"
    },
    {
      "inputs": [
        {
          "internalType": "uint256",
          "name": "proposalId",
          "type": "uint256"
        }
      ],
      "name": "proposalEta",
      "outputs": [
        {
          "internalType": "uint256",
          "name": "",
          "type": "uint256"
        }
      ],
      "stateMutability": "view",
      "type": "function"
    },
    {
      "inputs": [
        {
          "internalType": "uint256",
          "name": "proposalId",
          "type": "uint256"
        }
      ],
      "name": "proposalSnapshot",
      "outputs": [
        {
          "internalType": "uint256",
          "name": "",
          "type": "uint256"
        }
      ],
      "stateMutability": "view",
      "type": "function"
    },
    {
      "inputs": [
        {
          "internalType": "uint256",
          "name": "proposalId",
          "type": "uint256"
        }
      ],
      "name": "proposalVotes",
      "outputs": [
        {
          "internalType": "uint256",
          "name": "againstVotes",
          "type": "uint256"
        },
        {
          "internalType": "uint256",
          "name": "forVotes",
          "type": "uint256"
        },
        {
          "internalType": "uint256",
          "name": "abstainVotes",
          "type": "uint256"
        }
      ],
      "stateMutability": "view",
      "type": "function"
    },
    {
      "inputs": [
        {
          "internalType": "address[]",
          "name": "targets",
          "type": "address[]"
        },
        {
          "internalType": "uint256[]",
          "name": "values",
          "type": "uint256[]"
        },
        {
          "internalType": "bytes[]",
          "name": "calldatas",
          "type": "bytes[]"
        },
        {
          "internalType": "bytes32",
          "name": "descriptionHash",
          "type": "bytes32"
        }
      ],
      "name": "queue",
      "outputs": [
        {
          "internalType": "uint256",
          "name": "",
          "type": "uint256"
        }
      ],
      "stateMutability": "nonpayable",
      "type": "function"
    },
    {
      "inputs": [],
      "name": "quorumDenominator",
      "outputs": [
        {
          "internalType": "uint256",
          "name": "",
          "type": "uint256"
        }
      ],
      "stateMutability": "view",
      "type": "function"
    },
    {
      "inputs": [],
      "name": "quorumNumerator",
      "outputs": [
        {
          "internalType": "uint256",
          "name": "",
          "type": "uint256"
        }
      ],
      "stateMutability": "view",
      "type": "function"
    },
    {
      "inputs": [],
      "name": "s_votingDelay",
      "outputs": [
        {
          "internalType": "uint256",
          "name": "",
          "type": "uint256"
        }
      ],
      "stateMutability": "view",
      "type": "function"
    },
    {
      "inputs": [],
      "name": "s_votingPeriod",
      "outputs": [
        {
          "internalType": "uint256",
          "name": "",
          "type": "uint256"
        }
      ],
      "stateMutability": "view",
      "type": "function"
    },
    {
      "inputs": [],
      "name": "timelock",
      "outputs": [
        {
          "internalType": "address",
          "name": "",
          "type": "address"
        }
      ],
      "stateMutability": "view",
      "type": "function"
    },
    {
      "inputs": [],
      "name": "token",
      "outputs": [
        {
          "internalType": "contract ERC20Votes",
          "name": "",
          "type": "address"
        }
      ],
      "stateMutability": "view",
      "type": "function"
    },
    {
      "inputs": [
        {
          "internalType": "uint256",
          "name": "newQuorumNumerator",
          "type": "uint256"
        }
      ],
      "name": "updateQuorumNumerator",
      "outputs": [],
      "stateMutability": "nonpayable",
      "type": "function"
    },
    {
      "inputs": [
        {
          "internalType": "contract TimelockController",
          "name": "newTimelock",
          "type": "address"
        }
      ],
      "name": "updateTimelock",
      "outputs": [],
      "stateMutability": "nonpayable",
      "type": "function"
    },
    {
      "inputs": [],
      "name": "version",
      "outputs": [
        {
          "internalType": "string",
          "name": "",
          "type": "string"
        }
      ],
      "stateMutability": "view",
      "type": "function"
    },
    {
      "inputs": [],
      "name": "votingDelay",
      "outputs": [
        {
          "internalType": "uint256",
          "name": "",
          "type": "uint256"
        }
      ],
      "stateMutability": "view",
      "type": "function"
    },
    {
      "inputs": [],
      "name": "votingPeriod",
      "outputs": [
        {
          "internalType": "uint256",
          "name": "",
          "type": "uint256"
        }
      ],
      "stateMutability": "view",
      "type": "function"
    },
    {
      "inputs": [
        {
          "internalType": "uint256",
          "name": "blockNumber",
          "type": "uint256"
        }
      ],
      "name": "quorum",
      "outputs": [
        {
          "internalType": "uint256",
          "name": "",
          "type": "uint256"
        }
      ],
      "stateMutability": "view",
      "type": "function"
    },
    {
      "inputs": [
        {
          "internalType": "address",
          "name": "account",
          "type": "address"
        },
        {
          "internalType": "uint256",
          "name": "blockNumber",
          "type": "uint256"
        }
      ],
      "name": "getVotes",
      "outputs": [
        {
          "internalType": "uint256",
          "name": "",
          "type": "uint256"
        }
      ],
      "stateMutability": "view",
      "type": "function"
    },
    {
      "inputs": [
        {
          "internalType": "uint256",
          "name": "proposalId",
          "type": "uint256"
        }
      ],
      "name": "state",
      "outputs": [
        {
          "internalType": "enum IGovernor.ProposalState",
          "name": "",
          "type": "uint8"
        }
      ],
      "stateMutability": "view",
      "type": "function"
    },
    {
      "inputs": [
        {
          "internalType": "address[]",
          "name": "targets",
          "type": "address[]"
        },
        {
          "internalType": "uint256[]",
          "name": "values",
          "type": "uint256[]"
        },
        {
          "internalType": "bytes[]",
          "name": "calldatas",
          "type": "bytes[]"
        },
        {
          "internalType": "string",
          "name": "description",
          "type": "string"
        }
      ],
      "name": "propose",
      "outputs": [
        {
          "internalType": "uint256",
          "name": "",
          "type": "uint256"
        }
      ],
      "stateMutability": "nonpayable",
      "type": "function"
    },
    {
      "inputs": [
        {
          "internalType": "bytes4",
          "name": "interfaceId",
          "type": "bytes4"
        }
      ],
      "name": "supportsInterface",
      "outputs": [
        {
          "internalType": "bool",
          "name": "",
          "type": "bool"
        }
      ],
      "stateMutability": "view",
      "type": "function"
    }
  ],
  "bytecode": "0x6101406040523480156200001257600080fd5b5060405162002b9c38038062002b9c83398101604081905262000035916200033e565b8383866040518060400160405280601081526020016f11dbdd995c9b9bdc90dbdb9d1c9858dd60821b81525080620000726200014760201b60201c565b815160209283012081519183019190912060c082815260e08290524660a0818152604080517f8b73c3c69bb8fe3d512ecc4cf759cc79239f7b179b0ffacaa9a75d522b39400f8189018190528183019790975260608101959095526080808601939093523085830152805180860390920182529390920190925280519084012090526101005281516200010c916000919084019062000298565b505060601b6001600160601b031916610120526200012a8162000162565b5062000136816200022f565b5060065560075550620003ec915050565b6040805180820190915260018152603160f81b602082015290565b6064811115620001ea5760405162461bcd60e51b815260206004820152604360248201527f476f7665726e6f72566f74657351756f72756d4672616374696f6e3a2071756f60448201527f72756d4e756d657261746f72206f7665722071756f72756d44656e6f6d696e616064820152623a37b960e91b608482015260a40160405180910390fd5b600380549082905560408051828152602081018490527f0553476bf02ef2726e8ce5ced78d63e26e602e4a2257b1f559418e24b4633997910160405180910390a15050565b600454604080516001600160a01b03928316815291831660208301527f08f74ea46ef7894f65eabfb5e6e695de773a000b47c529ab559178069b226401910160405180910390a1600480546001600160a01b0319166001600160a01b0392909216919091179055565b828054620002a69062000396565b90600052602060002090601f016020900481019282620002ca576000855562000315565b82601f10620002e557805160ff191683800117855562000315565b8280016001018555821562000315579182015b8281111562000315578251825591602001919060010190620002f8565b506200032392915062000327565b5090565b5b8082111562000323576000815560010162000328565b600080600080600060a086880312156200035757600080fd5b85516200036481620003d3565b60208701519095506200037781620003d3565b6040870151606088015160809098015196999198509695945092505050565b600181811c90821680620003ab57607f821691505b60208210811415620003cd57634e487b7160e01b600052602260045260246000fd5b50919050565b6001600160a01b0381168114620003e957600080fd5b50565b60805160a05160c05160e051610100516101205160601c61274f6200044d600039600081816106200152818161138f0152611428015260006115bc0152600061160b015260006115e60152600061156a01526000611593015261274f6000f3fe6080604052600436106101cd5760003560e01c8063725ae3dc116100f7578063c01f9e3711610095578063deaaa7cc11610064578063deaaa7cc1461059a578063eb9019d4146105ce578063f8ce560a146105ee578063fc0c546a1461060e57600080fd5b8063c01f9e37146104e2578063c59057e414610502578063d33219b414610522578063dd4e2ba51461055457600080fd5b806397c3d334116100d157806397c3d33414610479578063a7713a701461048d578063a890c910146104a2578063ab58fb8e146104c257600080fd5b8063725ae3dc146104235780637b3c71d3146104395780637d5e81e21461045957600080fd5b80632d63f6931161016f578063438596321161013e5780634385963214610335578063544ffc9c1461037f57806354fd4d50146103d9578063567813881461040357600080fd5b80632d63f693146102b35780633932abb1146102d35780633bccf4fd146102e85780633e4f49e61461030857600080fd5b806306fdde03116101ab57806306fdde0314610248578063102d7f2c1461026a578063160cbed7146102805780632656227d146102a057600080fd5b806301ffc9a7146101d257806302a251a31461020757806306f3f9e614610226575b600080fd5b3480156101de57600080fd5b506101f26101ed36600461204b565b610642565b60405190151581526020015b60405180910390f35b34801561021357600080fd5b506007545b6040519081526020016101fe565b34801561023257600080fd5b50610246610241366004612092565b610653565b005b34801561025457600080fd5b5061025d6106c7565b6040516101fe919061240a565b34801561027657600080fd5b5061021860065481565b34801561028c57600080fd5b5061021861029b366004611ec1565b610759565b6102186102ae366004611ec1565b610981565b3480156102bf57600080fd5b506102186102ce366004612092565b610a54565b3480156102df57600080fd5b50600654610218565b3480156102f457600080fd5b5061021861030336600461218d565b610a8b565b34801561031457600080fd5b50610328610323366004612092565b610b1f565b6040516101fe91906123e2565b34801561034157600080fd5b506101f26103503660046120ab565b60008281526002602090815260408083206001600160a01b038516845260030190915290205460ff1692915050565b34801561038b57600080fd5b506103be61039a366004612092565b60008181526002602081905260409091208054600182015491909201549193909250565b604080519384526020840192909252908201526060016101fe565b3480156103e557600080fd5b506040805180820190915260018152603160f81b602082015261025d565b34801561040f57600080fd5b5061021861041e3660046120db565b610b2a565b34801561042f57600080fd5b5061021860075481565b34801561044557600080fd5b50610218610454366004612107565b610b53565b34801561046557600080fd5b50610218610474366004611f50565b610ba5565b34801561048557600080fd5b506064610218565b34801561049957600080fd5b50600354610218565b3480156104ae57600080fd5b506102466104bd366004612075565b610bbc565b3480156104ce57600080fd5b506102186104dd366004612092565b610c28565b3480156104ee57600080fd5b506102186104fd366004612092565b610ccc565b34801561050e57600080fd5b5061021861051d366004611ec1565b610cfb565b34801561052e57600080fd5b506004546001600160a01b03165b6040516001600160a01b0390911681526020016101fe565b34801561056057600080fd5b506040805180820190915260208082527f737570706f72743d627261766f2671756f72756d3d666f722c6162737461696e9082015261025d565b3480156105a657600080fd5b506102187f150214d74d59b7d1e90c73fc22ef3d991dd0a76b046543d4d80ab92d2a50328f81565b3480156105da57600080fd5b506102186105e9366004611e95565b610d35565b3480156105fa57600080fd5b50610218610609366004612092565b610d41565b34801561061a57600080fd5b5061053c7f000000000000000000000000000000000000000000000000000000000000000081565b600061064d82610d4c565b92915050565b61065b610d71565b6001600160a01b0316336001600160a01b0316146106bb5760405162461bcd60e51b8152602060048201526018602482015277476f7665726e6f723a206f6e6c79476f7665726e616e636560401b60448201526064015b60405180910390fd5b6106c481610d8a565b50565b6060600080546106d69061268d565b80601f01602080910402602001604051908101604052809291908181526020018280546107029061268d565b801561074f5780601f106107245761010080835404028352916020019161074f565b820191906000526020600020905b81548152906001019060200180831161073257829003601f168201915b5050505050905090565b60008061076886868686610cfb565b9050600461077582610b1f565b6007811115610786576107866126d8565b146107a35760405162461bcd60e51b81526004016106b29061245e565b6000600460009054906101000a90046001600160a01b03166001600160a01b031663f27a0c926040518163ffffffff1660e01b815260040160206040518083038186803b1580156107f357600080fd5b505afa158015610807573d6000803e3d6000fd5b505050506040513d601f19601f8201168201806040525081019061082b9190612032565b6004805460405163b1c5f42760e01b81529293506001600160a01b03169163b1c5f42791610864918b918b918b916000918c910161233c565b60206040518083038186803b15801561087c57600080fd5b505afa158015610890573d6000803e3d6000fd5b505050506040513d601f19601f820116820180604052508101906108b49190612032565b600083815260056020526040808220929092556004805492516308f2a0bb60e41b81526001600160a01b0390931692638f2a0bb0926108ff928c928c928c9290918c918a910161238a565b600060405180830381600087803b15801561091957600080fd5b505af115801561092d573d6000803e3d6000fd5b505050507f9a2e42fd6722813d69113e7d0079d3d940171428df7373df9c7f7617cfda289282824261095f9190612609565b6040805192835260208301919091520160405180910390a15095945050505050565b60008061099086868686610cfb565b9050600061099d82610b1f565b905060048160078111156109b3576109b36126d8565b14806109d0575060058160078111156109ce576109ce6126d8565b145b6109ec5760405162461bcd60e51b81526004016106b29061245e565b600082815260016020818152604092839020600201805460ff191690921790915590518381527f712ae1383f79ac853f8d882153778e0260ef8f03b504e2866e0593e04d2b291f910160405180910390a1610a4a8288888888610e52565b5095945050505050565b60008181526001602090815260408083208151928301909152546001600160401b0316908190525b6001600160401b031692915050565b604080517f150214d74d59b7d1e90c73fc22ef3d991dd0a76b046543d4d80ab92d2a50328f602082015290810186905260ff851660608201526000908190610af790610aef9060800160405160208183030381529060405280519060200120610e66565b868686610eb4565b9050610b1487828860405180602001604052806000815250610ed2565b979650505050505050565b600061064d82610fdd565b600080339050610b4b84828560405180602001604052806000815250610ed2565b949350505050565b600080339050610b9b86828787878080601f016020809104026020016040519081016040528093929190818152602001838380828437600092019190915250610ed292505050565b9695505050505050565b6000610bb3858585856110b8565b95945050505050565b610bc4610d71565b6001600160a01b0316336001600160a01b031614610c1f5760405162461bcd60e51b8152602060048201526018602482015277476f7665726e6f723a206f6e6c79476f7665726e616e636560401b60448201526064016106b2565b6106c4816112fd565b6004805460008381526005602052604080822054905163d45c443560e01b8152938401529182916001600160a01b03169063d45c44359060240160206040518083038186803b158015610c7a57600080fd5b505afa158015610c8e573d6000803e3d6000fd5b505050506040513d601f19601f82011682018060405250810190610cb29190612032565b905080600114610cc25780610cc5565b60005b9392505050565b60008181526001602081815260408084208151928301909152909101546001600160401b031690819052610a7c565b600084848484604051602001610d1494939291906122f1565b60408051601f19818403018152919052805160209091012095945050505050565b6000610cc58383611366565b600061064d8261140b565b60006001600160e01b03198216636e665ced60e01b148061064d575061064d826114be565b6000610d856004546001600160a01b031690565b905090565b6064811115610e0d5760405162461bcd60e51b815260206004820152604360248201527f476f7665726e6f72566f74657351756f72756d4672616374696f6e3a2071756f60448201527f72756d4e756d657261746f72206f7665722071756f72756d44656e6f6d696e616064820152623a37b960e91b608482015260a4016106b2565b600380549082905560408051828152602081018490527f0553476bf02ef2726e8ce5ced78d63e26e602e4a2257b1f559418e24b4633997910160405180910390a15050565b610e5f85858585856114f3565b5050505050565b600061064d610e73611566565b8360405161190160f01b6020820152602281018390526042810182905260009060620160405160208183030381529060405280519060200120905092915050565b6000806000610ec587878787611659565b91509150610a4a81611746565b6000848152600160208190526040822090610eec87610b1f565b6007811115610efd57610efd6126d8565b14610f565760405162461bcd60e51b815260206004820152602360248201527f476f7665726e6f723a20766f7465206e6f742063757272656e746c792061637460448201526269766560e81b60648201526084016106b2565b604080516020810190915281546001600160401b031690819052600090610f7e908790610d35565b9050610f8c87878784611901565b856001600160a01b03167fb8e138887d0aa13bab447e82de9d5c1777041ecd21ca36ba824ff1e6c07ddda488878488604051610fcb949392919061258e565b60405180910390a29695505050505050565b600080610fe983611a80565b90506004816007811115610fff57610fff6126d8565b1461100a5792915050565b60008381526005602052604090205480611025575092915050565b60048054604051632ab0f52960e01b81529182018390526001600160a01b031690632ab0f5299060240160206040518083038186803b15801561106757600080fd5b505afa15801561107b573d6000803e3d6000fd5b505050506040513d601f19601f8201168201806040525081019061109f9190612010565b156110ae575060079392505050565b5060059392505050565b6000806110ce8686868680519060200120610cfb565b905084518651146110f15760405162461bcd60e51b81526004016106b29061241d565b83518651146111125760405162461bcd60e51b81526004016106b29061241d565b60008651116111635760405162461bcd60e51b815260206004820152601860248201527f476f7665726e6f723a20656d7074792070726f706f73616c000000000000000060448201526064016106b2565b600081815260016020908152604091829020825191820190925281546001600160401b031690819052156111e35760405162461bcd60e51b815260206004820152602160248201527f476f7665726e6f723a2070726f706f73616c20616c72656164792065786973746044820152607360f81b60648201526084016106b2565b60006111f66111f160065490565b611be3565b6111ff43611be3565b6112099190612621565b905060006112196111f160075490565b6112239083612621565b835467ffffffffffffffff19166001600160401b038416178455905060018301805467ffffffffffffffff19166001600160401b0383161790557f7d84a6263ae0d98d3329bd7b46bb4e8d6f98cd35a7adb45c274c8b7fd5ebd5e084338b8b8d516001600160401b0381111561129b5761129b6126ee565b6040519080825280602002602001820160405280156112ce57816020015b60608152602001906001900390816112b95790505b508c88888e6040516112e89998979695949392919061249f565b60405180910390a15091979650505050505050565b600454604080516001600160a01b03928316815291831660208301527f08f74ea46ef7894f65eabfb5e6e695de773a000b47c529ab559178069b226401910160405180910390a1600480546001600160a01b0319166001600160a01b0392909216919091179055565b604051630748d63560e31b81526001600160a01b038381166004830152602482018390526000917f000000000000000000000000000000000000000000000000000000000000000090911690633a46b1a89060440160206040518083038186803b1580156113d357600080fd5b505afa1580156113e7573d6000803e3d6000fd5b505050506040513d601f19601f82011682018060405250810190610cc59190612032565b60006064600354604051632394e7a360e21b8152600481018590527f00000000000000000000000000000000000000000000000000000000000000006001600160a01b031690638e539e8c9060240160206040518083038186803b15801561147257600080fd5b505afa158015611486573d6000803e3d6000fd5b505050506040513d601f19601f820116820180604052508101906114aa9190612032565b6114b4919061266e565b61064d919061264c565b60006001600160e01b0319821663bf26d89760e01b148061064d57506301ffc9a760e01b6001600160e01b031983161461064d565b6004805460405163e38335e560e01b81526001600160a01b039091169163e38335e591349161152d918991899189916000918a910161233c565b6000604051808303818588803b15801561154657600080fd5b505af115801561155a573d6000803e3d6000fd5b50505050505050505050565b60007f00000000000000000000000000000000000000000000000000000000000000004614156115b557507f000000000000000000000000000000000000000000000000000000000000000090565b50604080517f00000000000000000000000000000000000000000000000000000000000000006020808301919091527f0000000000000000000000000000000000000000000000000000000000000000828401527f000000000000000000000000000000000000000000000000000000000000000060608301524660808301523060a0808401919091528351808403909101815260c0909201909252805191012090565b6000807f7fffffffffffffffffffffffffffffff5d576e7357a4501ddfe92f46681b20a0831115611690575060009050600361173d565b8460ff16601b141580156116a857508460ff16601c14155b156116b9575060009050600461173d565b6040805160008082526020820180845289905260ff881692820192909252606081018690526080810185905260019060a0016020604051602081039080840390855afa15801561170d573d6000803e3d6000fd5b5050604051601f1901519150506001600160a01b0381166117365760006001925092505061173d565b9150600090505b94509492505050565b600081600481111561175a5761175a6126d8565b14156117635750565b6001816004811115611777576117776126d8565b14156117c55760405162461bcd60e51b815260206004820152601860248201527f45434453413a20696e76616c6964207369676e6174757265000000000000000060448201526064016106b2565b60028160048111156117d9576117d96126d8565b14156118275760405162461bcd60e51b815260206004820152601f60248201527f45434453413a20696e76616c6964207369676e6174757265206c656e6774680060448201526064016106b2565b600381600481111561183b5761183b6126d8565b14156118945760405162461bcd60e51b815260206004820152602260248201527f45434453413a20696e76616c6964207369676e6174757265202773272076616c604482015261756560f01b60648201526084016106b2565b60048160048111156118a8576118a86126d8565b14156106c45760405162461bcd60e51b815260206004820152602260248201527f45434453413a20696e76616c6964207369676e6174757265202776272076616c604482015261756560f01b60648201526084016106b2565b60008481526002602090815260408083206001600160a01b0387168452600381019092529091205460ff16156119895760405162461bcd60e51b815260206004820152602760248201527f476f7665726e6f72566f74696e6753696d706c653a20766f746520616c726561604482015266191e4818d85cdd60ca1b60648201526084016106b2565b6001600160a01b03841660009081526003820160205260408120805460ff1916600117905560ff168360ff1614156119da57818160000160008282546119cf9190612609565b90915550610e5f9050565b60ff8316600114156119fa57818160010160008282546119cf9190612609565b60ff831660021415611a1a57818160020160008282546119cf9190612609565b60405162461bcd60e51b815260206004820152603560248201527f476f7665726e6f72566f74696e6753696d706c653a20696e76616c69642076616044820152746c756520666f7220656e756d20566f74655479706560581b60648201526084016106b2565b6000818152600160208181526040808420815160a08101835281546001600160401b0390811660808301908152825283518086018552958301541685529283019390935260029092015460ff80821615801594840194909452610100909104161515606082015290611af55750600792915050565b806060015115611b085750600292915050565b805151436001600160401b039091161115611b265750600092915050565b602081015151436001600160401b039091161115611b475750600192915050565b611b548160200151611c4f565b15611b9557611b6283611c7e565b8015611b81575060008381526002602052604090208054600190910154115b611b8c576003610cc5565b60049392505050565b60405162461bcd60e51b815260206004820152601d60248201527f476f7665726e6f723a20756e6b6e6f776e2070726f706f73616c20696400000060448201526064016106b2565b50919050565b60006001600160401b03821115611c4b5760405162461bcd60e51b815260206004820152602660248201527f53616665436173743a2076616c756520646f65736e27742066697420696e203660448201526534206269747360d01b60648201526084016106b2565b5090565b6000611c6482516001600160401b0316151590565b801561064d57505051436001600160401b03909116111590565b60008181526002602081905260408220908101546001820154611ca19190612609565b611cad61060985610a54565b11159392505050565b60006001600160401b03831115611ccf57611ccf6126ee565b611ce2601f8401601f19166020016125b6565b9050828152838383011115611cf657600080fd5b828260208301376000602084830101529392505050565b600082601f830112611d1e57600080fd5b81356020611d33611d2e836125e6565b6125b6565b80838252828201915082860187848660051b8901011115611d5357600080fd5b60005b85811015611d7b578135611d6981612704565b84529284019290840190600101611d56565b5090979650505050505050565b600082601f830112611d9957600080fd5b81356020611da9611d2e836125e6565b80838252828201915082860187848660051b8901011115611dc957600080fd5b60005b85811015611d7b5781356001600160401b03811115611dea57600080fd5b8801603f81018a13611dfb57600080fd5b611e0c8a8783013560408401611cb6565b8552509284019290840190600101611dcc565b600082601f830112611e3057600080fd5b81356020611e40611d2e836125e6565b80838252828201915082860187848660051b8901011115611e6057600080fd5b60005b85811015611d7b57813584529284019290840190600101611e63565b803560ff81168114611e9057600080fd5b919050565b60008060408385031215611ea857600080fd5b8235611eb381612704565b946020939093013593505050565b60008060008060808587031215611ed757600080fd5b84356001600160401b0380821115611eee57600080fd5b611efa88838901611d0d565b95506020870135915080821115611f1057600080fd5b611f1c88838901611e1f565b94506040870135915080821115611f3257600080fd5b50611f3f87828801611d88565b949793965093946060013593505050565b60008060008060808587031215611f6657600080fd5b84356001600160401b0380821115611f7d57600080fd5b611f8988838901611d0d565b95506020870135915080821115611f9f57600080fd5b611fab88838901611e1f565b94506040870135915080821115611fc157600080fd5b611fcd88838901611d88565b93506060870135915080821115611fe357600080fd5b508501601f81018713611ff557600080fd5b61200487823560208401611cb6565b91505092959194509250565b60006020828403121561202257600080fd5b81518015158114610cc557600080fd5b60006020828403121561204457600080fd5b5051919050565b60006020828403121561205d57600080fd5b81356001600160e01b031981168114610cc557600080fd5b60006020828403121561208757600080fd5b8135610cc581612704565b6000602082840312156120a457600080fd5b5035919050565b600080604083850312156120be57600080fd5b8235915060208301356120d081612704565b809150509250929050565b600080604083850312156120ee57600080fd5b823591506120fe60208401611e7f565b90509250929050565b6000806000806060858703121561211d57600080fd5b8435935061212d60208601611e7f565b925060408501356001600160401b038082111561214957600080fd5b818701915087601f83011261215d57600080fd5b81358181111561216c57600080fd5b88602082850101111561217e57600080fd5b95989497505060200194505050565b600080600080600060a086880312156121a557600080fd5b853594506121b560208701611e7f565b93506121c360408701611e7f565b94979396509394606081013594506080013592915050565b600081518084526020808501945080840160005b838110156122145781516001600160a01b0316875295820195908201906001016121ef565b509495945050505050565b600081518084526020808501808196508360051b8101915082860160005b858110156122675782840389526122558483516122a4565b9885019893509084019060010161223d565b5091979650505050505050565b600081518084526020808501945080840160005b8381101561221457815187529582019590820190600101612288565b6000815180845260005b818110156122ca576020818501810151868301820152016122ae565b818111156122dc576000602083870101525b50601f01601f19169290920160200192915050565b60808152600061230460808301876121db565b82810360208401526123168187612274565b9050828103604084015261232a818661221f565b91505082606083015295945050505050565b60a08152600061234f60a08301886121db565b82810360208401526123618188612274565b90508281036040840152612375818761221f565b60608401959095525050608001529392505050565b60c08152600061239d60c08301896121db565b82810360208401526123af8189612274565b905082810360408401526123c3818861221f565b60608401969096525050608081019290925260a0909101529392505050565b602081016008831061240457634e487b7160e01b600052602160045260246000fd5b91905290565b602081526000610cc560208301846122a4565b60208082526021908201527f476f7665726e6f723a20696e76616c69642070726f706f73616c206c656e67746040820152600d60fb1b606082015260800190565b60208082526021908201527f476f7665726e6f723a2070726f706f73616c206e6f74207375636365737366756040820152601b60fa1b606082015260800190565b60006101208b8352602060018060a01b038c16818501528160408501526124c88285018c6121db565b915083820360608501526124dc828b612274565b915083820360808501528189518084528284019150828160051b850101838c0160005b8381101561252d57601f1987840301855261251b8383516122a4565b948601949250908501906001016124ff565b505086810360a0880152612541818c61221f565b94505050505061255c60c08401876001600160401b03169052565b6001600160401b03851660e084015282810361010084015261257e81856122a4565b9c9b505050505050505050505050565b84815260ff84166020820152826040820152608060608201526000610b9b60808301846122a4565b604051601f8201601f191681016001600160401b03811182821017156125de576125de6126ee565b604052919050565b60006001600160401b038211156125ff576125ff6126ee565b5060051b60200190565b6000821982111561261c5761261c6126c2565b500190565b60006001600160401b03808316818516808303821115612643576126436126c2565b01949350505050565b60008261266957634e487b7160e01b600052601260045260246000fd5b500490565b6000816000190483118215151615612688576126886126c2565b500290565b600181811c908216806126a157607f821691505b60208210811415611bdd57634e487b7160e01b600052602260045260246000fd5b634e487b7160e01b600052601160045260246000fd5b634e487b7160e01b600052602160045260246000fd5b634e487b7160e01b600052604160045260246000fd5b6001600160a01b03811681146106c457600080fdfea264697066735822122091caaa2616b17ff83c9dc13dc189ac021940fecc69b86b3193e41c567943a47264736f6c63430008070033",
  "immutableReferences": {
    "3300": [
      {
        "length": 32,
        "start": 1568
      },
      {
        "length": 32,
        "start": 5007
      },
      {
        "length": 32,
        "start": 5160
      }
    ],
    "6155": [
      {
        "length": 32,
        "start": 5523
      }
    ],
    "6157": [
      {
        "length": 32,
        "start": 5482
      }
    ],
    "6159": [
      {
        "length": 32,
        "start": 5606
      }
    ],
    "6161": [
      {
        "length": 32,
        "start": 5643
      }
    ],
    "6163": [
      {
        "length": 32,
        "start": 5564
      }
    ]
  },
  "source": "// SPDX-License-Identifier: MIT\npragma solidity ^0.8.2;\n\nimport \"@openzeppelin/contracts/governance/Governor.sol\";\nimport \"@openzeppelin/contracts/governance/extensions/GovernorCountingSimple.sol\";\nimport \"@openzeppelin/contracts/governance/extensions/GovernorVotes.sol\";\nimport \"@openzeppelin/contracts/governance/extensions/GovernorVotesQuorumFraction.sol\";\nimport \"@openzeppelin/contracts/governance/extensions/GovernorTimelockControl.sol\";\n\ncontract BoxGovernor is\n    Governor,\n    GovernorCountingSimple,\n    GovernorVotes,\n    GovernorVotesQuorumFraction,\n    GovernorTimelockControl\n{\n    uint256 public s_votingDelay;\n    uint256 public s_votingPeriod;\n\n    constructor(\n        ERC20Votes _token,\n        TimelockController _timelock,\n        uint256 _quorumPercentage,\n        uint256 _votingPeriod,\n        uint256 _votingDelay\n    )\n        Governor(\"GovernorContract\")\n        GovernorVotes(_token)\n        GovernorVotesQuorumFraction(_quorumPercentage)\n        GovernorTimelockControl(_timelock)\n    {\n        s_votingDelay = _votingDelay;\n        s_votingPeriod = _votingPeriod;\n    }\n\n    function votingDelay() public view override returns (uint256) {\n        return s_votingDelay; // 1 = 1 block\n    }\n\n    function votingPeriod() public view override returns (uint256) {\n        return s_votingPeriod; // 45818 = 1 week\n    }\n\n    // The following functions are overrides required by Solidity.\n\n    function quorum(uint256 blockNumber)\n        public\n        view\n        override(IGovernor, GovernorVotesQuorumFraction)\n        returns (uint256)\n    {\n        return super.quorum(blockNumber);\n    }\n\n    function getVotes(address account, uint256 blockNumber)\n        public\n        view\n        override(IGovernor, GovernorVotes)\n        returns (uint256)\n    {\n        return super.getVotes(account, blockNumber);\n    }\n\n    function state(uint256 proposalId)\n        public\n        view\n        override(Governor, GovernorTimelockControl)\n        returns (ProposalState)\n    {\n        return super.state(proposalId);\n    }\n\n    function propose(\n        address[] memory targets,\n        uint256[] memory values,\n        bytes[] memory calldatas,\n        string memory description\n    ) public override(Governor, IGovernor) returns (uint256) {\n        return super.propose(targets, values, calldatas, description);\n    }\n\n    function _execute(\n        uint256 proposalId,\n        address[] memory targets,\n        uint256[] memory values,\n        bytes[] memory calldatas,\n        bytes32 descriptionHash\n    ) internal override(Governor, GovernorTimelockControl) {\n        super._execute(proposalId, targets, values, calldatas, descriptionHash);\n    }\n\n    function _cancel(\n        address[] memory targets,\n        uint256[] memory values,\n        bytes[] memory calldatas,\n        bytes32 descriptionHash\n    ) internal override(Governor, GovernorTimelockControl) returns (uint256) {\n        return super._cancel(targets, values, calldatas, descriptionHash);\n    }\n\n    function _executor()\n        internal\n        view\n        override(Governor, GovernorTimelockControl)\n        returns (address)\n    {\n        return super._executor();\n    }\n\n    function supportsInterface(bytes4 interfaceId)\n        public\n        view\n        override(Governor, GovernorTimelockControl)\n        returns (bool)\n    {\n        return super.supportsInterface(interfaceId);\n    }\n}",
  "sourcePath": "/Users/macbookpro4eric/Projects/blockchain/project45_governance/contracts/BoxGovernor.sol",
  "compiler": {
    "name": "solc",
    "version": "0.8.7+commit.e28d00a7.Emscripten.clang"
  },
  "schemaVersion": "3.3.4",
  "updatedAt": "2021-11-21T01:04:11.905Z",
  "devdoc": {
    "kind": "dev",
    "methods": {
      "COUNTING_MODE()": {
        "details": "See {IGovernor-COUNTING_MODE}."
      },
      "castVote(uint256,uint8)": {
        "details": "See {IGovernor-castVote}."
      },
      "castVoteBySig(uint256,uint8,uint8,bytes32,bytes32)": {
        "details": "See {IGovernor-castVoteBySig}."
      },
      "castVoteWithReason(uint256,uint8,string)": {
        "details": "See {IGovernor-castVoteWithReason}."
      },
      "execute(address[],uint256[],bytes[],bytes32)": {
        "details": "See {IGovernor-execute}."
      },
      "hasVoted(uint256,address)": {
        "details": "See {IGovernor-hasVoted}."
      },
      "hashProposal(address[],uint256[],bytes[],bytes32)": {
        "details": "See {IGovernor-hashProposal}. The proposal id is produced by hashing the RLC encoded `targets` array, the `values` array, the `calldatas` array and the descriptionHash (bytes32 which itself is the keccak256 hash of the description string). This proposal id can be produced from the proposal data which is part of the {ProposalCreated} event. It can even be computed in advance, before the proposal is submitted. Note that the chainId and the governor address are not part of the proposal id computation. Consequently, the same proposal (with same operation and same description) will have the same id if submitted on multiple governors accross multiple networks. This also means that in order to execute the same operation twice (on the same governor) the proposer will have to change the description in order to avoid proposal id conflicts."
      },
      "name()": {
        "details": "See {IGovernor-name}."
      },
      "proposalDeadline(uint256)": {
        "details": "See {IGovernor-proposalDeadline}."
      },
      "proposalEta(uint256)": {
        "details": "Public accessor to check the eta of a queued proposal"
      },
      "proposalSnapshot(uint256)": {
        "details": "See {IGovernor-proposalSnapshot}."
      },
      "proposalVotes(uint256)": {
        "details": "Accessor to the internal vote counts."
      },
      "queue(address[],uint256[],bytes[],bytes32)": {
        "details": "Function to queue a proposal to the timelock."
      },
      "timelock()": {
        "details": "Public accessor to check the address of the timelock"
      },
      "updateTimelock(address)": {
        "details": "Public endpoint to update the underlying timelock instance. Restricted to the timelock itself, so updates must be proposed, scheduled and executed using the {Governor} workflow."
      },
      "version()": {
        "details": "See {IGovernor-version}."
      },
      "votingDelay()": {
        "details": "delay, in number of block, between the proposal is created and the vote starts. This can be increassed to leave time for users to buy voting power, of delegate it, before the voting of a proposal starts."
      },
      "votingPeriod()": {
        "details": "delay, in number of blocks, between the vote start and vote ends. Note: the {votingDelay} can delay the start of the vote. This must be considered when setting the voting duration compared to the voting delay."
      }
    },
    "version": 1
  },
  "userdoc": {
    "kind": "user",
    "methods": {
      "votingDelay()": {
        "notice": "module:user-config"
      },
      "votingPeriod()": {
        "notice": "module:user-config"
      }
    },
    "version": 1
  }
}