{
  "contractName": "VotableERC20",
  "abi": [
    {
      "inputs": [],
      "stateMutability": "nonpayable",
      "type": "constructor"
    },
    {
      "anonymous": false,
      "inputs": [
        {
          "indexed": true,
          "internalType": "address",
          "name": "owner",
          "type": "address"
        },
        {
          "indexed": true,
          "internalType": "address",
          "name": "spender",
          "type": "address"
        },
        {
          "indexed": false,
          "internalType": "uint256",
          "name": "value",
          "type": "uint256"
        }
      ],
      "name": "Approval",
      "type": "event"
    },
    {
      "anonymous": false,
      "inputs": [
        {
          "indexed": true,
          "internalType": "address",
          "name": "delegator",
          "type": "address"
        },
        {
          "indexed": true,
          "internalType": "address",
          "name": "fromDelegate",
          "type": "address"
        },
        {
          "indexed": true,
          "internalType": "address",
          "name": "toDelegate",
          "type": "address"
        }
      ],
      "name": "DelegateChanged",
      "type": "event"
    },
    {
      "anonymous": false,
      "inputs": [
        {
          "indexed": true,
          "internalType": "address",
          "name": "delegate",
          "type": "address"
        },
        {
          "indexed": false,
          "internalType": "uint256",
          "name": "previousBalance",
          "type": "uint256"
        },
        {
          "indexed": false,
          "internalType": "uint256",
          "name": "newBalance",
          "type": "uint256"
        }
      ],
      "name": "DelegateVotesChanged",
      "type": "event"
    },
    {
      "anonymous": false,
      "inputs": [
        {
          "indexed": true,
          "internalType": "address",
          "name": "from",
          "type": "address"
        },
        {
          "indexed": true,
          "internalType": "address",
          "name": "to",
          "type": "address"
        },
        {
          "indexed": false,
          "internalType": "uint256",
          "name": "value",
          "type": "uint256"
        }
      ],
      "name": "Transfer",
      "type": "event"
    },
    {
      "inputs": [],
      "name": "DOMAIN_SEPARATOR",
      "outputs": [
        {
          "internalType": "bytes32",
          "name": "",
          "type": "bytes32"
        }
      ],
      "stateMutability": "view",
      "type": "function"
    },
    {
      "inputs": [
        {
          "internalType": "address",
          "name": "owner",
          "type": "address"
        },
        {
          "internalType": "address",
          "name": "spender",
          "type": "address"
        }
      ],
      "name": "allowance",
      "outputs": [
        {
          "internalType": "uint256",
          "name": "",
          "type": "uint256"
        }
      ],
      "stateMutability": "view",
      "type": "function"
    },
    {
      "inputs": [
        {
          "internalType": "address",
          "name": "spender",
          "type": "address"
        },
        {
          "internalType": "uint256",
          "name": "amount",
          "type": "uint256"
        }
      ],
      "name": "approve",
      "outputs": [
        {
          "internalType": "bool",
          "name": "",
          "type": "bool"
        }
      ],
      "stateMutability": "nonpayable",
      "type": "function"
    },
    {
      "inputs": [
        {
          "internalType": "address",
          "name": "account",
          "type": "address"
        }
      ],
      "name": "balanceOf",
      "outputs": [
        {
          "internalType": "uint256",
          "name": "",
          "type": "uint256"
        }
      ],
      "stateMutability": "view",
      "type": "function"
    },
    {
      "inputs": [
        {
          "internalType": "address",
          "name": "account",
          "type": "address"
        },
        {
          "internalType": "uint32",
          "name": "pos",
          "type": "uint32"
        }
      ],
      "name": "checkpoints",
      "outputs": [
        {
          "components": [
            {
              "internalType": "uint32",
              "name": "fromBlock",
              "type": "uint32"
            },
            {
              "internalType": "uint224",
              "name": "votes",
              "type": "uint224"
            }
          ],
          "internalType": "struct ERC20Votes.Checkpoint",
          "name": "",
          "type": "tuple"
        }
      ],
      "stateMutability": "view",
      "type": "function"
    },
    {
      "inputs": [],
      "name": "decimals",
      "outputs": [
        {
          "internalType": "uint8",
          "name": "",
          "type": "uint8"
        }
      ],
      "stateMutability": "view",
      "type": "function"
    },
    {
      "inputs": [
        {
          "internalType": "address",
          "name": "spender",
          "type": "address"
        },
        {
          "internalType": "uint256",
          "name": "subtractedValue",
          "type": "uint256"
        }
      ],
      "name": "decreaseAllowance",
      "outputs": [
        {
          "internalType": "bool",
          "name": "",
          "type": "bool"
        }
      ],
      "stateMutability": "nonpayable",
      "type": "function"
    },
    {
      "inputs": [
        {
          "internalType": "address",
          "name": "delegatee",
          "type": "address"
        }
      ],
      "name": "delegate",
      "outputs": [],
      "stateMutability": "nonpayable",
      "type": "function"
    },
    {
      "inputs": [
        {
          "internalType": "address",
          "name": "delegatee",
          "type": "address"
        },
        {
          "internalType": "uint256",
          "name": "nonce",
          "type": "uint256"
        },
        {
          "internalType": "uint256",
          "name": "expiry",
          "type": "uint256"
        },
        {
          "internalType": "uint8",
          "name": "v",
          "type": "uint8"
        },
        {
          "internalType": "bytes32",
          "name": "r",
          "type": "bytes32"
        },
        {
          "internalType": "bytes32",
          "name": "s",
          "type": "bytes32"
        }
      ],
      "name": "delegateBySig",
      "outputs": [],
      "stateMutability": "nonpayable",
      "type": "function"
    },
    {
      "inputs": [
        {
          "internalType": "address",
          "name": "account",
          "type": "address"
        }
      ],
      "name": "delegates",
      "outputs": [
        {
          "internalType": "address",
          "name": "",
          "type": "address"
        }
      ],
      "stateMutability": "view",
      "type": "function"
    },
    {
      "inputs": [
        {
          "internalType": "uint256",
          "name": "blockNumber",
          "type": "uint256"
        }
      ],
      "name": "getPastTotalSupply",
      "outputs": [
        {
          "internalType": "uint256",
          "name": "",
          "type": "uint256"
        }
      ],
      "stateMutability": "view",
      "type": "function"
    },
    {
      "inputs": [
        {
          "internalType": "address",
          "name": "account",
          "type": "address"
        },
        {
          "internalType": "uint256",
          "name": "blockNumber",
          "type": "uint256"
        }
      ],
      "name": "getPastVotes",
      "outputs": [
        {
          "internalType": "uint256",
          "name": "",
          "type": "uint256"
        }
      ],
      "stateMutability": "view",
      "type": "function"
    },
    {
      "inputs": [
        {
          "internalType": "address",
          "name": "account",
          "type": "address"
        }
      ],
      "name": "getVotes",
      "outputs": [
        {
          "internalType": "uint256",
          "name": "",
          "type": "uint256"
        }
      ],
      "stateMutability": "view",
      "type": "function"
    },
    {
      "inputs": [
        {
          "internalType": "address",
          "name": "spender",
          "type": "address"
        },
        {
          "internalType": "uint256",
          "name": "addedValue",
          "type": "uint256"
        }
      ],
      "name": "increaseAllowance",
      "outputs": [
        {
          "internalType": "bool",
          "name": "",
          "type": "bool"
        }
      ],
      "stateMutability": "nonpayable",
      "type": "function"
    },
    {
      "inputs": [],
      "name": "name",
      "outputs": [
        {
          "internalType": "string",
          "name": "",
          "type": "string"
        }
      ],
      "stateMutability": "view",
      "type": "function"
    },
    {
      "inputs": [
        {
          "internalType": "address",
          "name": "owner",
          "type": "address"
        }
      ],
      "name": "nonces",
      "outputs": [
        {
          "internalType": "uint256",
          "name": "",
          "type": "uint256"
        }
      ],
      "stateMutability": "view",
      "type": "function"
    },
    {
      "inputs": [
        {
          "internalType": "address",
          "name": "account",
          "type": "address"
        }
      ],
      "name": "numCheckpoints",
      "outputs": [
        {
          "internalType": "uint32",
          "name": "",
          "type": "uint32"
        }
      ],
      "stateMutability": "view",
      "type": "function"
    },
    {
      "inputs": [
        {
          "internalType": "address",
          "name": "owner",
          "type": "address"
        },
        {
          "internalType": "address",
          "name": "spender",
          "type": "address"
        },
        {
          "internalType": "uint256",
          "name": "value",
          "type": "uint256"
        },
        {
          "internalType": "uint256",
          "name": "deadline",
          "type": "uint256"
        },
        {
          "internalType": "uint8",
          "name": "v",
          "type": "uint8"
        },
        {
          "internalType": "bytes32",
          "name": "r",
          "type": "bytes32"
        },
        {
          "internalType": "bytes32",
          "name": "s",
          "type": "bytes32"
        }
      ],
      "name": "permit",
      "outputs": [],
      "stateMutability": "nonpayable",
      "type": "function"
    },
    {
      "inputs": [],
      "name": "s_maxSupply",
      "outputs": [
        {
          "internalType": "uint256",
          "name": "",
          "type": "uint256"
        }
      ],
      "stateMutability": "view",
      "type": "function"
    },
    {
      "inputs": [],
      "name": "symbol",
      "outputs": [
        {
          "internalType": "string",
          "name": "",
          "type": "string"
        }
      ],
      "stateMutability": "view",
      "type": "function"
    },
    {
      "inputs": [],
      "name": "totalSupply",
      "outputs": [
        {
          "internalType": "uint256",
          "name": "",
          "type": "uint256"
        }
      ],
      "stateMutability": "view",
      "type": "function"
    },
    {
      "inputs": [
        {
          "internalType": "address",
          "name": "recipient",
          "type": "address"
        },
        {
          "internalType": "uint256",
          "name": "amount",
          "type": "uint256"
        }
      ],
      "name": "transfer",
      "outputs": [
        {
          "internalType": "bool",
          "name": "",
          "type": "bool"
        }
      ],
      "stateMutability": "nonpayable",
      "type": "function"
    },
    {
      "inputs": [
        {
          "internalType": "address",
          "name": "sender",
          "type": "address"
        },
        {
          "internalType": "address",
          "name": "recipient",
          "type": "address"
        },
        {
          "internalType": "uint256",
          "name": "amount",
          "type": "uint256"
        }
      ],
      "name": "transferFrom",
      "outputs": [
        {
          "internalType": "bool",
          "name": "",
          "type": "bool"
        }
      ],
      "stateMutability": "nonpayable",
      "type": "function"
    }
  ],
  "bytecode": "0x6101406040527f6e71edae12b1b97f4d1f60370fef10105fa2faae0126114a169c64845d6126c961012052683635c9adc5dea000006009553480156200004457600080fd5b506040518060400160405280600c81526020016b0566f7461626c6545524332360a41b81525080604051806040016040528060018152602001603160f81b8152506040518060400160405280600c81526020016b0566f7461626c6545524332360a41b81525060405180604001604052806002815260200161564560f01b8152508160039080519060200190620000dd92919062000794565b508051620000f390600490602084019062000794565b5050825160209384012082519284019290922060c083815260e08290524660a0818152604080517f8b73c3c69bb8fe3d512ecc4cf759cc79239f7b179b0ffacaa9a75d522b39400f818a018190528183019890985260608101959095526080808601939093523085830152805180860390920182529390920190925280519401939093209092526101005250506009546200019090339062000196565b620008ce565b620001ad8282620001b160201b62000ad01760201c565b5050565b620001c882826200026860201b62000b601760201c565b6001600160e01b03620001dc620003578216565b1115620002495760405162461bcd60e51b815260206004820152603060248201527f4552433230566f7465733a20746f74616c20737570706c79207269736b73206f60448201526f766572666c6f77696e6720766f74657360801b60648201526084015b60405180910390fd5b62000262600862000c4b6200035d60201b178362000372565b50505050565b6001600160a01b038216620002c05760405162461bcd60e51b815260206004820152601f60248201527f45524332303a206d696e7420746f20746865207a65726f206164647265737300604482015260640162000240565b8060026000828254620002d4919062000830565b90915550506001600160a01b038216600090815260208190526040812080548392906200030390849062000830565b90915550506040518181526001600160a01b038316906000907fddf252ad1be2c89b69c2b068fc378daa952ba7f163c4a11628f55a4df523b3ef9060200160405180910390a3620001ad6000838362000529565b60025490565b60006200036b828462000830565b9392505050565b825460009081908015620003c457856200038e6001836200084b565b81548110620003a157620003a1620008b8565b60009182526020909120015464010000000090046001600160e01b0316620003c7565b60005b6001600160e01b03169250620003de83858760201c565b91506000811180156200042257504386620003fb6001846200084b565b815481106200040e576200040e620008b8565b60009182526020909120015463ffffffff16145b1562000496576200043e826200054160201b62000c571760201c565b866200044c6001846200084b565b815481106200045f576200045f620008b8565b9060005260206000200160000160046101000a8154816001600160e01b0302191690836001600160e01b031602179055506200051b565b856040518060400160405280620004b843620005b060201b62000cc41760201c565b63ffffffff168152602001620004d9856200054160201b62000c571760201c565b6001600160e01b0390811690915282546001810184556000938452602093849020835194909301519091166401000000000263ffffffff909316929092179101555b50935093915050565b505050565b620005248383836200061760201b62000d291760201c565b60006001600160e01b03821115620005ac5760405162461bcd60e51b815260206004820152602760248201527f53616665436173743a2076616c756520646f65736e27742066697420696e20326044820152663234206269747360c81b606482015260840162000240565b5090565b600063ffffffff821115620005ac5760405162461bcd60e51b815260206004820152602660248201527f53616665436173743a2076616c756520646f65736e27742066697420696e203360448201526532206269747360d01b606482015260840162000240565b6200062f8383836200052460201b62000d5b1760201c565b6001600160a01b0383811660009081526006602052604080822054858416835291205462000524929182169116838183148015906200066e5750600081115b1562000524576001600160a01b03831615620006fb576001600160a01b038316600090815260076020908152604082208291620006b8919062000786901b62000d60178562000372565b91509150846001600160a01b03166000805160206200251c8339815191528383604051620006f0929190918252602082015260400190565b60405180910390a250505b6001600160a01b0382161562000524576001600160a01b0382166000908152600760209081526040822082916200073f91906200035d901b62000c4b178562000372565b91509150836001600160a01b03166000805160206200251c833981519152838360405162000777929190918252602082015260400190565b60405180910390a25050505050565b60006200036b82846200084b565b828054620007a29062000865565b90600052602060002090601f016020900481019282620007c6576000855562000811565b82601f10620007e157805160ff191683800117855562000811565b8280016001018555821562000811579182015b8281111562000811578251825591602001919060010190620007f4565b50620005ac9291505b80821115620005ac57600081556001016200081a565b60008219821115620008465762000846620008a2565b500190565b600082821015620008605762000860620008a2565b500390565b600181811c908216806200087a57607f821691505b602082108114156200089c57634e487b7160e01b600052602260045260246000fd5b50919050565b634e487b7160e01b600052601160045260246000fd5b634e487b7160e01b600052603260045260246000fd5b60805160a05160c05160e0516101005161012051611bfe6200091e600039600061093c015260006110ba01526000611109015260006110e401526000611068015260006110910152611bfe6000f3fe608060405234801561001057600080fd5b506004361061014d5760003560e01c80636fcfff45116100c3578063a457c2d71161007c578063a457c2d7146102e9578063a9059cbb146102fc578063c3cda5201461030f578063d505accf14610322578063dd62ed3e14610335578063f1127ed81461036e57600080fd5b80636fcfff451461025757806370a082311461027f5780637ecebe00146102a85780638e539e8c146102bb57806395d89b41146102ce5780639ab24eb0146102d657600080fd5b80633644e515116101155780633644e515146101c757806339509351146101cf5780633a46b1a8146101e2578063587cde1e146101f55780635c19a95c146102395780635d6418471461024e57600080fd5b806306fdde0314610152578063095ea7b31461017057806318160ddd1461019357806323b872dd146101a5578063313ce567146101b8575b600080fd5b61015a6103ab565b6040516101679190611aab565b60405180910390f35b61018361017e3660046119d0565b61043d565b6040519015158152602001610167565b6002545b604051908152602001610167565b6101836101b336600461192a565b610453565b60405160128152602001610167565b610197610502565b6101836101dd3660046119d0565b610511565b6101976101f03660046119d0565b61054d565b6102216102033660046118dc565b6001600160a01b039081166000908152600660205260409020541690565b6040516001600160a01b039091168152602001610167565b61024c6102473660046118dc565b6105c7565b005b61019760095481565b61026a6102653660046118dc565b6105d4565b60405163ffffffff9091168152602001610167565b61019761028d3660046118dc565b6001600160a01b031660009081526020819052604090205490565b6101976102b63660046118dc565b6105fc565b6101976102c9366004611a92565b61061a565b61015a610676565b6101976102e43660046118dc565b610685565b6101836102f73660046119d0565b61070c565b61018361030a3660046119d0565b6107a5565b61024c61031d3660046119fa565b6107b2565b61024c610330366004611966565b6108e8565b6101976103433660046118f7565b6001600160a01b03918216600090815260016020908152604080832093909416825291909152205490565b61038161037c366004611a52565b610a4c565b60408051825163ffffffff1681526020928301516001600160e01b03169281019290925201610167565b6060600380546103ba90611b51565b80601f01602080910402602001604051908101604052809291908181526020018280546103e690611b51565b80156104335780601f1061040857610100808354040283529160200191610433565b820191906000526020600020905b81548152906001019060200180831161041657829003601f168201915b5050505050905090565b600061044a338484610d6c565b50600192915050565b6000610460848484610e90565b6001600160a01b0384166000908152600160209081526040808320338452909152902054828110156104ea5760405162461bcd60e51b815260206004820152602860248201527f45524332303a207472616e7366657220616d6f756e74206578636565647320616044820152676c6c6f77616e636560c01b60648201526084015b60405180910390fd5b6104f78533858403610d6c565b506001949350505050565b600061050c611064565b905090565b3360008181526001602090815260408083206001600160a01b0387168452909152812054909161044a918590610548908690611b00565b610d6c565b600043821061059e5760405162461bcd60e51b815260206004820152601f60248201527f4552433230566f7465733a20626c6f636b206e6f7420796574206d696e65640060448201526064016104e1565b6001600160a01b03831660009081526007602052604090206105c09083611157565b9392505050565b6105d13382611214565b50565b6001600160a01b0381166000908152600760205260408120546105f690610cc4565b92915050565b6001600160a01b0381166000908152600560205260408120546105f6565b600043821061066b5760405162461bcd60e51b815260206004820152601f60248201527f4552433230566f7465733a20626c6f636b206e6f7420796574206d696e65640060448201526064016104e1565b6105f6600883611157565b6060600480546103ba90611b51565b6001600160a01b03811660009081526007602052604081205480156106f9576001600160a01b03831660009081526007602052604090206106c7600183611b3a565b815481106106d7576106d7611bb2565b60009182526020909120015464010000000090046001600160e01b03166106fc565b60005b6001600160e01b03169392505050565b3360009081526001602090815260408083206001600160a01b03861684529091528120548281101561078e5760405162461bcd60e51b815260206004820152602560248201527f45524332303a2064656372656173656420616c6c6f77616e63652062656c6f77604482015264207a65726f60d81b60648201526084016104e1565b61079b3385858403610d6c565b5060019392505050565b600061044a338484610e90565b834211156108025760405162461bcd60e51b815260206004820152601d60248201527f4552433230566f7465733a207369676e6174757265206578706972656400000060448201526064016104e1565b604080517fe48329057bfd03d55e49b547132e39cffd9c1820ad7b9d4c5307691425d15adf60208201526001600160a01b03881691810191909152606081018690526080810185905260009061087c906108749060a0016040516020818303038152906040528051906020012061128d565b8585856112db565b905061088781611303565b86146108d55760405162461bcd60e51b815260206004820152601960248201527f4552433230566f7465733a20696e76616c6964206e6f6e63650000000000000060448201526064016104e1565b6108df8188611214565b50505050505050565b834211156109385760405162461bcd60e51b815260206004820152601d60248201527f45524332305065726d69743a206578706972656420646561646c696e6500000060448201526064016104e1565b60007f00000000000000000000000000000000000000000000000000000000000000008888886109678c611303565b6040805160208101969096526001600160a01b0394851690860152929091166060840152608083015260a082015260c0810186905260e00160405160208183030381529060405280519060200120905060006109c28261128d565b905060006109d2828787876112db565b9050896001600160a01b0316816001600160a01b031614610a355760405162461bcd60e51b815260206004820152601e60248201527f45524332305065726d69743a20696e76616c6964207369676e6174757265000060448201526064016104e1565b610a408a8a8a610d6c565b50505050505050505050565b60408051808201909152600080825260208201526001600160a01b0383166000908152600760205260409020805463ffffffff8416908110610a9057610a90611bb2565b60009182526020918290206040805180820190915291015463ffffffff8116825264010000000090046001600160e01b0316918101919091529392505050565b610ada8282610b60565b6002546001600160e01b031015610b4c5760405162461bcd60e51b815260206004820152603060248201527f4552433230566f7465733a20746f74616c20737570706c79207269736b73206f60448201526f766572666c6f77696e6720766f74657360801b60648201526084016104e1565b610b5a6008610c4b8361132b565b50505050565b6001600160a01b038216610bb65760405162461bcd60e51b815260206004820152601f60248201527f45524332303a206d696e7420746f20746865207a65726f20616464726573730060448201526064016104e1565b8060026000828254610bc89190611b00565b90915550506001600160a01b03821660009081526020819052604081208054839290610bf5908490611b00565b90915550506040518181526001600160a01b038316906000907fddf252ad1be2c89b69c2b068fc378daa952ba7f163c4a11628f55a4df523b3ef9060200160405180910390a3610c47600083836114a4565b5050565b60006105c08284611b00565b60006001600160e01b03821115610cc05760405162461bcd60e51b815260206004820152602760248201527f53616665436173743a2076616c756520646f65736e27742066697420696e20326044820152663234206269747360c81b60648201526084016104e1565b5090565b600063ffffffff821115610cc05760405162461bcd60e51b815260206004820152602660248201527f53616665436173743a2076616c756520646f65736e27742066697420696e203360448201526532206269747360d01b60648201526084016104e1565b6001600160a01b03838116600090815260066020526040808220548584168352912054610d5b929182169116836114af565b505050565b60006105c08284611b3a565b6001600160a01b038316610dce5760405162461bcd60e51b8152602060048201526024808201527f45524332303a20617070726f76652066726f6d20746865207a65726f206164646044820152637265737360e01b60648201526084016104e1565b6001600160a01b038216610e2f5760405162461bcd60e51b815260206004820152602260248201527f45524332303a20617070726f766520746f20746865207a65726f206164647265604482015261737360f01b60648201526084016104e1565b6001600160a01b0383811660008181526001602090815260408083209487168084529482529182902085905590518481527f8c5be1e5ebec7d5bd14f71427d1e84f3dd0314c0f7b2291e5b200ac8c7c3b925910160405180910390a3505050565b6001600160a01b038316610ef45760405162461bcd60e51b815260206004820152602560248201527f45524332303a207472616e736665722066726f6d20746865207a65726f206164604482015264647265737360d81b60648201526084016104e1565b6001600160a01b038216610f565760405162461bcd60e51b815260206004820152602360248201527f45524332303a207472616e7366657220746f20746865207a65726f206164647260448201526265737360e81b60648201526084016104e1565b6001600160a01b03831660009081526020819052604090205481811015610fce5760405162461bcd60e51b815260206004820152602660248201527f45524332303a207472616e7366657220616d6f756e7420657863656564732062604482015265616c616e636560d01b60648201526084016104e1565b6001600160a01b03808516600090815260208190526040808220858503905591851681529081208054849290611005908490611b00565b92505081905550826001600160a01b0316846001600160a01b03167fddf252ad1be2c89b69c2b068fc378daa952ba7f163c4a11628f55a4df523b3ef8460405161105191815260200190565b60405180910390a3610b5a8484846114a4565b60007f00000000000000000000000000000000000000000000000000000000000000004614156110b357507f000000000000000000000000000000000000000000000000000000000000000090565b50604080517f00000000000000000000000000000000000000000000000000000000000000006020808301919091527f0000000000000000000000000000000000000000000000000000000000000000828401527f000000000000000000000000000000000000000000000000000000000000000060608301524660808301523060a0808401919091528351808403909101815260c0909201909252805191012090565b8154600090815b818110156111bb57600061117282846115ec565b90508486828154811061118757611187611bb2565b60009182526020909120015463ffffffff1611156111a7578092506111b5565b6111b2816001611b00565b91505b5061115e565b81156111ff57846111cd600184611b3a565b815481106111dd576111dd611bb2565b60009182526020909120015464010000000090046001600160e01b0316611202565b60005b6001600160e01b031695945050505050565b6001600160a01b038281166000818152600660208181526040808420805485845282862054949093528787166001600160a01b03198416811790915590519190951694919391928592917f3134e8a2e6d97e929a7e54011ea5485d7d196dd5f0ba4d4ef95803e8e3fc257f9190a4610b5a8284836114af565b60006105f661129a611064565b8360405161190160f01b6020820152602281018390526042810182905260009060620160405160208183030381529060405280519060200120905092915050565b60008060006112ec87878787611607565b915091506112f9816116f4565b5095945050505050565b6001600160a01b03811660009081526005602052604090208054600181018255905b50919050565b8254600090819080156113765785611344600183611b3a565b8154811061135457611354611bb2565b60009182526020909120015464010000000090046001600160e01b0316611379565b60005b6001600160e01b0316925061139283858763ffffffff16565b91506000811180156113d0575043866113ac600184611b3a565b815481106113bc576113bc611bb2565b60009182526020909120015463ffffffff16145b15611430576113de82610c57565b866113ea600184611b3a565b815481106113fa576113fa611bb2565b9060005260206000200160000160046101000a8154816001600160e01b0302191690836001600160e01b0316021790555061149b565b85604051806040016040528061144543610cc4565b63ffffffff16815260200161145985610c57565b6001600160e01b0390811690915282546001810184556000938452602093849020835194909301519091166401000000000263ffffffff909316929092179101555b50935093915050565b610d5b838383610d29565b816001600160a01b0316836001600160a01b0316141580156114d15750600081115b15610d5b576001600160a01b0383161561155f576001600160a01b0383166000908152600760205260408120819061150c90610d608561132b565b91509150846001600160a01b03167fdec2bacdd2f05b59de34da9b523dff8be42e5e38e818c82fdb0bae774387a7248383604051611554929190918252602082015260400190565b60405180910390a250505b6001600160a01b03821615610d5b576001600160a01b0382166000908152600760205260408120819061159590610c4b8561132b565b91509150836001600160a01b03167fdec2bacdd2f05b59de34da9b523dff8be42e5e38e818c82fdb0bae774387a72483836040516115dd929190918252602082015260400190565b60405180910390a25050505050565b60006115fb6002848418611b18565b6105c090848416611b00565b6000807f7fffffffffffffffffffffffffffffff5d576e7357a4501ddfe92f46681b20a083111561163e57506000905060036116eb565b8460ff16601b1415801561165657508460ff16601c14155b1561166757506000905060046116eb565b6040805160008082526020820180845289905260ff881692820192909252606081018690526080810185905260019060a0016020604051602081039080840390855afa1580156116bb573d6000803e3d6000fd5b5050604051601f1901519150506001600160a01b0381166116e4576000600192509250506116eb565b9150600090505b94509492505050565b600081600481111561170857611708611b9c565b14156117115750565b600181600481111561172557611725611b9c565b14156117735760405162461bcd60e51b815260206004820152601860248201527f45434453413a20696e76616c6964207369676e6174757265000000000000000060448201526064016104e1565b600281600481111561178757611787611b9c565b14156117d55760405162461bcd60e51b815260206004820152601f60248201527f45434453413a20696e76616c6964207369676e6174757265206c656e6774680060448201526064016104e1565b60038160048111156117e9576117e9611b9c565b14156118425760405162461bcd60e51b815260206004820152602260248201527f45434453413a20696e76616c6964207369676e6174757265202773272076616c604482015261756560f01b60648201526084016104e1565b600481600481111561185657611856611b9c565b14156105d15760405162461bcd60e51b815260206004820152602260248201527f45434453413a20696e76616c6964207369676e6174757265202776272076616c604482015261756560f01b60648201526084016104e1565b80356001600160a01b03811681146118c657600080fd5b919050565b803560ff811681146118c657600080fd5b6000602082840312156118ee57600080fd5b6105c0826118af565b6000806040838503121561190a57600080fd5b611913836118af565b9150611921602084016118af565b90509250929050565b60008060006060848603121561193f57600080fd5b611948846118af565b9250611956602085016118af565b9150604084013590509250925092565b600080600080600080600060e0888a03121561198157600080fd5b61198a886118af565b9650611998602089016118af565b955060408801359450606088013593506119b4608089016118cb565b925060a0880135915060c0880135905092959891949750929550565b600080604083850312156119e357600080fd5b6119ec836118af565b946020939093013593505050565b60008060008060008060c08789031215611a1357600080fd5b611a1c876118af565b95506020870135945060408701359350611a38606088016118cb565b92506080870135915060a087013590509295509295509295565b60008060408385031215611a6557600080fd5b611a6e836118af565b9150602083013563ffffffff81168114611a8757600080fd5b809150509250929050565b600060208284031215611aa457600080fd5b5035919050565b600060208083528351808285015260005b81811015611ad857858101830151858201604001528201611abc565b81811115611aea576000604083870101525b50601f01601f1916929092016040019392505050565b60008219821115611b1357611b13611b86565b500190565b600082611b3557634e487b7160e01b600052601260045260246000fd5b500490565b600082821015611b4c57611b4c611b86565b500390565b600181811c90821680611b6557607f821691505b6020821081141561132557634e487b7160e01b600052602260045260246000fd5b634e487b7160e01b600052601160045260246000fd5b634e487b7160e01b600052602160045260246000fd5b634e487b7160e01b600052603260045260246000fdfea2646970667358221220a295a714669fa568d618a9a92661e10353aeac65567fe5878a5208dead5bcfe064736f6c63430008070033dec2bacdd2f05b59de34da9b523dff8be42e5e38e818c82fdb0bae774387a724",
  "immutableReferences": {
    "4795": [
      {
        "length": 32,
        "start": 2364
      }
    ],
    "6155": [
      {
        "length": 32,
        "start": 4241
      }
    ],
    "6157": [
      {
        "length": 32,
        "start": 4200
      }
    ],
    "6159": [
      {
        "length": 32,
        "start": 4324
      }
    ],
    "6161": [
      {
        "length": 32,
        "start": 4361
      }
    ],
    "6163": [
      {
        "length": 32,
        "start": 4282
      }
    ]
  },
  "source": "// SPDX-License-Identifier: MIT\npragma solidity ^0.8.2;\n\nimport \"@openzeppelin/contracts/token/ERC20/extensions/ERC20Votes.sol\";\n\ncontract VotableERC20 is ERC20Votes {\n    uint256 public s_maxSupply = 1000 * 1e18;\n\n    constructor()\n        ERC20(\"VotableERC20\", \"VE\")\n        ERC20Permit(\"VotableERC20\")\n    {\n        _mint(msg.sender, s_maxSupply);\n    }\n\n    // The functions below are overrides required by Solidity.\n\n    function _afterTokenTransfer(\n        address from,\n        address to,\n        uint256 amount\n    ) internal override(ERC20Votes) {\n        super._afterTokenTransfer(from, to, amount);\n    }\n\n    function _mint(address to, uint256 amount) internal override(ERC20Votes) {\n        super._mint(to, amount);\n    }\n\n    function _burn(address account, uint256 amount)\n        internal\n        override(ERC20Votes)\n    {\n        super._burn(account, amount);\n    }\n}",
  "sourcePath": "/Users/macbookpro4eric/Projects/blockchain/project45_governance/contracts/VotableERC20.sol",
  "compiler": {
    "name": "solc",
    "version": "0.8.7+commit.e28d00a7.Emscripten.clang"
  },
  "schemaVersion": "3.3.4",
  "updatedAt": "2021-11-21T01:04:11.927Z",
  "devdoc": {
    "kind": "dev",
    "methods": {
      "DOMAIN_SEPARATOR()": {
        "details": "See {IERC20Permit-DOMAIN_SEPARATOR}."
      },
      "allowance(address,address)": {
        "details": "See {IERC20-allowance}."
      },
      "approve(address,uint256)": {
        "details": "See {IERC20-approve}. Requirements: - `spender` cannot be the zero address."
      },
      "balanceOf(address)": {
        "details": "See {IERC20-balanceOf}."
      },
      "checkpoints(address,uint32)": {
        "details": "Get the `pos`-th checkpoint for `account`."
      },
      "decimals()": {
        "details": "Returns the number of decimals used to get its user representation. For example, if `decimals` equals `2`, a balance of `505` tokens should be displayed to a user as `5.05` (`505 / 10 ** 2`). Tokens usually opt for a value of 18, imitating the relationship between Ether and Wei. This is the value {ERC20} uses, unless this function is overridden; NOTE: This information is only used for _display_ purposes: it in no way affects any of the arithmetic of the contract, including {IERC20-balanceOf} and {IERC20-transfer}."
      },
      "decreaseAllowance(address,uint256)": {
        "details": "Atomically decreases the allowance granted to `spender` by the caller. This is an alternative to {approve} that can be used as a mitigation for problems described in {IERC20-approve}. Emits an {Approval} event indicating the updated allowance. Requirements: - `spender` cannot be the zero address. - `spender` must have allowance for the caller of at least `subtractedValue`."
      },
      "delegate(address)": {
        "details": "Delegate votes from the sender to `delegatee`."
      },
      "delegateBySig(address,uint256,uint256,uint8,bytes32,bytes32)": {
        "details": "Delegates votes from signer to `delegatee`"
      },
      "delegates(address)": {
        "details": "Get the address `account` is currently delegating to."
      },
      "getPastTotalSupply(uint256)": {
        "details": "Retrieve the `totalSupply` at the end of `blockNumber`. Note, this value is the sum of all balances. It is but NOT the sum of all the delegated votes! Requirements: - `blockNumber` must have been already mined"
      },
      "getPastVotes(address,uint256)": {
        "details": "Retrieve the number of votes for `account` at the end of `blockNumber`. Requirements: - `blockNumber` must have been already mined"
      },
      "getVotes(address)": {
        "details": "Gets the current votes balance for `account`"
      },
      "increaseAllowance(address,uint256)": {
        "details": "Atomically increases the allowance granted to `spender` by the caller. This is an alternative to {approve} that can be used as a mitigation for problems described in {IERC20-approve}. Emits an {Approval} event indicating the updated allowance. Requirements: - `spender` cannot be the zero address."
      },
      "name()": {
        "details": "Returns the name of the token."
      },
      "nonces(address)": {
        "details": "See {IERC20Permit-nonces}."
      },
      "numCheckpoints(address)": {
        "details": "Get number of checkpoints for `account`."
      },
      "permit(address,address,uint256,uint256,uint8,bytes32,bytes32)": {
        "details": "See {IERC20Permit-permit}."
      },
      "symbol()": {
        "details": "Returns the symbol of the token, usually a shorter version of the name."
      },
      "totalSupply()": {
        "details": "See {IERC20-totalSupply}."
      },
      "transfer(address,uint256)": {
        "details": "See {IERC20-transfer}. Requirements: - `recipient` cannot be the zero address. - the caller must have a balance of at least `amount`."
      },
      "transferFrom(address,address,uint256)": {
        "details": "See {IERC20-transferFrom}. Emits an {Approval} event indicating the updated allowance. This is not required by the EIP. See the note at the beginning of {ERC20}. Requirements: - `sender` and `recipient` cannot be the zero address. - `sender` must have a balance of at least `amount`. - the caller must have allowance for ``sender``'s tokens of at least `amount`."
      }
    },
    "version": 1
  },
  "userdoc": {
    "kind": "user",
    "methods": {},
    "version": 1
  }
}